:040000000AEF00F013
:10000800FACF0AF0FBCF0BF00CED00F0EBEF00F0AD
:100018000600E9CF0CF0EACF0DF0E1CF0EF0E2CF09
:100028000FF0D9CF10F0DACF11F0F3CF12F0F4CFF0
:1000380013F0F6CF14F0F7CF15F0F8CF16F0F5CF90
:1000480017F0F2A201D001D024D08C90096E000ED6
:10005800186E0950090E186401D001D002D017D0CB
:1000680016D08330010BFF0A096E09468C50091817
:10007800FD0B09188C6E096E010E056E09509FEC78
:1000880000F0182A090E186401D001D0EAD7F292BC
:1000980000D017C0F5FF16C0F8FF15C0F7FF14C051
:1000A800F6FF13C0F4FF12C0F3FF11C0DAFF10C04F
:1000B800D9FF0FC0E2FF0EC0E1FF0DC0EAFF0CC080
:1000C800E9FF0BC0FBFF0AC0FAFF11006D96D09E36
:1000D8000F0EC16E959295908C908C92E7EC00F083
:1000E800F28E8350010BFF0A216E8C502118FE0BF3
:1000F80021188C6E216E010E1D6E215085EC00F0CA
:10010800F0D71E6E000E1F6E1E5010D01E6E000E11
:10011800206E1E5007D01E6E640E1A6E1E50B9EC6B
:1001280000F0202A040E2064F6D71F2A1D501F5CF9
:10013800D8B01200EBD7066E000E076E065010D02E
:10014800066E000E086E065007D0066E640E026E2C
:100158000650C9EC00F0082A040E0864F6D7072AEE
:100168000550075CD8B01200EBD71B6E000E1C6E52
:100178001B5007D01B6E050E196E1B50D9EC00F0F2
:100188001C2A1C501A60F6D71200036E000E046E6B
:10019800035007D0036E050E016E0350E0EC00F02B
:1001A800042A04500260F6D71200FA0E00F0E82E76
:1001B800FDD7192EFAD71200FA0E00F0E82EFDD757
:1001C800012EFAD71200F288F250F28C12000001C8
:0401D8006AEF00F0DA
:020000040020DA
:08000000FFFFFFFFFFFFFFFF00
:020000040030CA
:0E000000040C1F1EFF8081FF0FC00FE00F4099
:00000001FF
