:040000000AEF00F013
:10000800FACF29F0FBCF2AF00CED00F0B8EF00F0A2
:100018000600E9CF2BF0EACF2CF0E1CF2DF0E2CFAC
:100028002EF0D9CF2FF0DACF30F0F3CF31F0F4CF74
:1000380032F0F6CF33F0F7CF34F0F8CF35F0F5CF14
:1000480036F0F2A401D001D003D0ECEC00F000D0DF
:1000580036C0F5FF35C0F8FF34C0F7FF33C0F6FFF0
:1000680032C0F4FF31C0F3FF30C0DAFF2FC0D9FF30
:100078002EC0E2FF2DC0E1FF2CC0EAFF2BC0E9FF34
:100088002AC0FBFF29C0FAFF1100000EAC6EAB6E50
:1000980037B0AC8837A202D0AC8CAB8C37B4AC8EFE
:1000A80037A602D0AB8801D0AB8A37B8AC849E980B
:1000B80037BAAB8637AC02D09D8A01D09D9A9E9AFA
:1000C80037AE02D09D8801D09D9838C0AFFF395017
:1000D800B06EAC8AAB8E949C948EACB8ACBE01D09A
:1000E800948C12003C6E3D6A3C502C0E3E6E3C5087
:1000F80093908A9022EC01F03C6E970E3D6E3C5036
:10010800000E386A376AFAEC00F03EC03AF03C6EEE
:100118001F0E3B6E3C5014EC01F03DC037F0DEEC96
:1001280000F0F28E01C037F002C038F0FAEC00F0AF
:10013800FFD7286E0D0E256E28501BEC01F00CD051
:1001480026C0D9FF27C0DAFFDF50246E0CEC01F07F
:10015800ACA2FED7264A272A26C0D9FF27C0DAFF35
:10016800DF50D8B41200ECD73F6A980EF66E010E35
:10017800F76E000EF86E00EE01F010EE23F00900A5
:10018800F5CFEEFFE550E150FAE1000176EF00F01F
:10019800B4B3544D523020496E74657272757074E0
:1001A80020696E20657665727920315365632E2E3D
:1001B800210A000037507F0BD56E000ED76ED66E21
:1001C800F29437AE02D0F28A01D0F29AD58E12009C
:1001D800000E276E030E266E9DEC00F08A70F294D6
:1001E80001C024F002C025F003EF01F037C039F058
:1001F80038C03AF03AC0D7FF39C0D6FF120024C041
:1002080026F025C027F027C0D7FF26C0D6FF12004A
:10021800ACAC03D0AC903FB2AC8024C0ADFF1200B0
:100228003AC037F03BC038F0396A49EF00F025C0D2
:1002380024F00CEC01F0ACB21200FDD7F294F1946A
:06024800F28AF28C1200A4
:020000040020DA
:08000000FFFFFFFFFFFFFFFF00
:020000040030CA
:0E000000040C1F1EFF8081FF0FC00FE00F4099
:00000001FF
