:020000040000FA
:06000000C4EF02F0120043
:020006001200E6
:06000800E2EF00F012001F
:02000E000100EF
:0C001000A40500006000000014000000C7
:04001C00D9CFE6FF53
:10002000E1CFD9FFFD0EDBCFE6FFE66AFE0EDBCFA8
:10003000E6FF29EC02F0E552E552E552E552E7CF42
:10004000D9FF1200D9CFE6FFE1CFD9FFFE0EDBCFFB
:10005000E6FF8DEC02F0E552ACA2FED7E552E7CF09
:10006000D9FF1200D9CFE6FFE1CFD9FF0D0EE66E22
:10007000E9DFE552FD0EDBCFE9FFFE0EDBCFEAFF45
:10008000EF5013E0FD0EDBCFE9FFFE0EDBCFEAFF02
:10009000EF50E66E8DEC02F0E552ACA2FED7FD0EFD
:1000A000DB2AFE0E01E3DB2AE5D7E552E7CFD9FFD5
:1000B0001200D9CFE6FFE1CFD9FFE6529EAAFED7C4
:1000C0006EEC02F0DF6E0A0EE66EBCDFE5520D0E3E
:1000D000E66EB8DFE552DFCFE6FFB4DFE552DF5072
:1000E00000D0E552E552E7CFD9FF12009EAAFED715
:1000F0006EEC02F000D01200D9CFE6FFE1CFD9FFBD
:10010000020EE1260D0EE66E9DDFE5520A0EE66E4A
:1001100099DFE552DF6AFC0EDB50DF5C1FE29EAA2E
:10012000FED76EEC02F0E76E010EE7CFDBFFFD0EAF
:10013000DBCFE9FFFE0EDBCFEAFF010EDBCFEFFFE7
:10014000DBCFE6FF8DEC02F0E552ACA2FED7FD0E50
:10015000DB2AFE0E01E3DB2ADF2ADDD7020EE15C9B
:1001600002E2E16AE552E16EE552E7CFD9FF120003
:10017000F290F180F286F28C1200D9CFE6FFE1CF47
:10018000D9FFE652610EE66E000EE66E32EC00F02C
:10019000E552E5528C90DF6A050EDF5C0DE283507C
:1001A000020B02E08C9201D08C82C80EE66E5AECF3
:1001B00001F0E552DF2AF0D78C92E552E552E7CF05
:1001C000D9FF1200DACFE4FFE2CFDAFFE9CFE4FF94
:1001D000EACFE4FFF6CFE4FFF7CFE4FFF5CFE4FF8B
:1001E000F3CFE4FFF4CFE4FFFACFE4FF00EE00F03A
:1001F000020EE80403E3EECFE4FFFBD700EE02F0CB
:10020000020EE80403E3EECFE4FFFBD7E652D9CFBA
:10021000E6FFE1CFD9FFE652F2B0AFDF8150DF6EEB
:10022000F290E552E552E7CFD9FFE55200EE03F038
:10023000020EE80403E3E5CFEDFFFBD700EE01F08B
:10024000020EE80403E3E5CFEDFFFBD7E5CFFAFFAD
:10025000E5CFF4FFE5CFF3FFE5CFF5FFE5CFF7FFFF
:10026000E5CFF6FFE5CFEAFFE5CFE9FFE5CFDAFF1F
:100270001100F28E120093680F0EC16E9590959248
:1002800000016C0E606F74DF1F0EE66E60C0E6FF4B
:100290000EEC00F0E552E552ECDF8350010B02E07A
:1002A0008C9001D08C80C80EE66E5AEC01F0E552BD
:0402B000F4D712006D
:0C02B400D9CFE6FFE1CFD9FFE652DF6AA8
:1002C000FE0EDB50D880DF5407E3050EE66EA4EC8B
:1002D00002F0E552DF2AF4D700D0E552E552E7CF2D
:1002E000D9FF1200D9CFE6FFE1CFD9FFE652DF6A8E
:1002F000FE0EDB50D880DF5407E3010EE66EA4EC5F
:1003000002F0E552DF2AF4D700D0E552E552E7CFFC
:10031000D9FF1200D9CFE6FFE1CFD9FF020EE126C7
:10032000DF6AFE0EDB50DF5C13E2010EDB6A0A0EB1
:10033000F36E010EDBCFF4FFF350F45C07E2640EC2
:10034000E66EB8DFE552010EDB2AF1D7DF2AE9D7E6
:10035000020EE15C02E2E16AE552E16EE552E7CFAE
:10036000D9FF1200D9CFE6FFE1CFD9FF020EE12677
:10037000DF6AFE0EDB50DF5C13E2010EDB6A050E66
:10038000F36E010EDBCFF4FFF350F45C07E2640E72
:10039000E66E90DFE552010EDB2AF1D7DF2AE9D7BE
:1003A000020EE15C02E2E16AE552E16EE552E7CF5E
:0403B000D9FF12005F
:0C03B4000E0EF66E000EF76E000EF86ED6
:1003C00000010900F550796F0900F5507A6F03E1DB
:1003D000796701D03DD00900F550746F0900F550E0
:1003E000756F0900F550766F09000900F550E96E48
:1003F0000900F550EA6E090009000900F550776F11
:100400000900F550786F09000900F6CF7BF0F7CFAF
:100410007CF0F8CF7DF074C0F6FF75C0F7FF76C0B2
:10042000F8FF0001775302E1785307E00900F55027
:10043000EE6E7707F8E27807F9D77BC0F6FF7CC04D
:10044000F7FF7DC0F8FF00017907000E7A5BBFD788
:02045000120098
:0E045200D9CFE6FFDACFE6FFE1CFD9FFE2CF48
:10046000DAFFAC6AAB6AFD0EDBB0AC88DBA202D06F
:10047000AC8CAB8CDBB4AC8EDBA602D0AB8801D0ED
:10048000AB8ADBB8AC849E98DBBAAB86DBAC02D01F
:100490009D8A01D09D9A9E9ADBAE02D09D8801D0A4
:1004A0009D98FB0EDB50AF6EFB0EFC0EDBCF03F016
:1004B00003C002F0036A0250B06EAC8AAB8E949C0B
:1004C000948EAC50100B04E0AC50800B01E1948C86
:0C04D000E552E5CFDAFFE7CFD9FF1200BC
:0404DC00D9CFE6FF8F
:1004E000DACFE6FFE1CFD9FFE2CFDAFFE652F20E34
:1004F00000017E17ABAC03D07E91ABB07E81ABB474
:100500007E85ABB27E87AE50DF6EDF50E552E5529E
:0A051000E5CFDAFFE7CFD9FF1200B4
:06051A00D9CFE6FFDACFA5
:10052000E6FFE1CFD9FFE2CFDAFFACAC04D0AC906C
:1005300000017EB3AC80FD0EDB50AD6EE552E5CF21
:08054000DAFFE7CFD9FF12003A
:08054800FF0EE350046E480EA3
:1005500001D04C0EE76EE72EFED7E76AE72EFED7F6
:08056000042EF7D70000120081
:08056800000EF36E00EE00F03E
:10057000080E01D81200EA6002D0EE6AFCD7F350F0
:08058000E9601200EE6AFCD7ED
:0805880013EE00F023EE00F079
:10059000F86A019CDAEC01F003EC00F03BEC01F0AE
:0405A000FBD7120073
:0C05A400000A504F52544220696E7465EA
:0805B00072727570742E2E2189
:020000040030CA
:010001000CF2
:0100020019E4
:010003001EDE
:010005008179
:010006008079
:010008000FE8
:00000001FF
