:040000000AEF00F013
:10000800FACF36F0FBCF37F00CED00F013EF01F02C
:100018000600E9CF38F0EACF39F0E1CF3AF0E2CF85
:100028003BF0D9CF3CF0DACF3DF0F3CF3EF0F4CF40
:100038003FF0F6CF40F0F7CF41F0F8CF42F0F5CFE0
:1000480043F09EAA01D001D003D077EC00F000D095
:100058009E9A43C0F5FF42C0F8FF41C0F7FF40C079
:10006800F6FF3FC0F4FF3EC0F3FF3DC0DAFF3CC0DF
:10007800D9FF3BC0E2FF3AC0E1FF39C0EAFF38C010
:10008800E9FF37C0FBFF36C0FAFF1100000EAC6E67
:10009800AB6E44B0AC8844A202D0AC8CAB8C44B4F8
:1000A800AC8E44A602D0AB8801D0AB8A44B8AC84ED
:1000B8009E9844BAAB8644AC02D09D8A01D09D9AE2
:1000C8009E9A44AE02D09D8801D09D9845C0AFFF4E
:1000D8004650B06EAC8AAB8E949C948EACB8ACBED5
:1000E80001D0948C12008FEC01F04B6E000E326E32
:1000F800010E316EE1EC00F04BC030F07CEC01F009
:100108008A90346E000E356E345010D08150010B39
:10011800FF0A346E8A503418FE0B34188A6E346E17
:10012800C80E306E345038EC01F0352A020E3564B2
:10013800EDD78A90020C496E6C0E4C6E4950959022
:1001480093904CC047F01F0E486E495067EC01F081
:100158008AEC01F0F28E8C90000E476E1E0E466EF1
:10016800C6EC00F08350010BFF0A496E8C50491809
:10017800FE0B49188C6E496EC80E456E495028EC26
:1001880001F0EAD7486E0D0E456E485075EC01F047
:100198000CD046C0D9FF47C0DAFFDF50446E57EC99
:1001A80001F0ACA2FED7464A472A46C0D9FF47C04D
:1001B800DAFFDF50D8B41200ECD7336E0D0E306E74
:1001C80033507CEC01F00CD031C0D9FF32C0DAFFDB
:1001D800DF502F6E5FEC01F0ACA2FED7314A322A15
:1001E80031C0D9FF32C0DAFFDF50D8B41200ECD7E3
:1001F8000A55415254207265636569766520696EB7
:10020800746572727570742E2E210A0D000D50726D
:1002180065737320616E79204B65792E2E004B6AC9
:100228004A6AF80EF66E010EF76E000EF86E00EED2
:1002380001F010EE2EF00900F5CFEEFFE550E15089
:10024800FAE100019FEF00F0466E000E476E46503F
:1002580007D0466E050E446E46506EEC01F0472AF4
:1002680047504560F6D71200316E000E326E31509D
:1002780007D0316E050E2F6E315083EC01F0322A13
:1002880032503060F6D71200F20E4A16ABAC03D0EB
:100298004A90ABB04A80ABB44A84ABB24A86AECF80
:1002A8002FF02F501200ACAC03D0AC904AB2AC8007
:1002B80044C0ADFF1200ACAC03D0AC904AB2AC80E5
:1002C8002FC0ADFF120047C044F048C045F0466A51
:1002D8004AEF00F0FA0E00F0E82EFDD7442EFAD7C8
:1002E800120045C044F057EC01F0ACB21200FDD743
:1002F80030C02FF05FEC01F0ACB21200FDD7FA0E5F
:1003080000F0E82EFDD72F2EFAD712009E9A9F9A5A
:0E0318009D8AF28C12009EAAFED748EF01F0DB
:020000040020DA
:08000000FFFFFFFFFFFFFFFF00
:020000040030CA
:0E000000040C1F1EFF8081FF0FC00FE00F4099
:00000001FF
