:040000000CEF00F011
:10000800FACF07F0FBCF08F0E9CF09F00EED00F0CA
:10001800CCEF00F00600EACF0AF0E1CF0BF0E2CF18
:100028000CF0D9CF0DF0DACF0EF0F3CF0FF0F4CFFC
:1000380010F0F6CF11F0F7CF12F0F8CF13F0F5CF9C
:1000480014F0F2B07AEC00F081CF15F0F29014C001
:10005800F5FF13C0F8FF12C0F7FF11C0F6FF10C07C
:10006800F4FF0FC0F3FF0EC0DAFF0DC0D9FF0CC0BC
:10007800E2FF0BC0E1FF0AC0EAFF09C0E9FF08C0C0
:10008800FBFF07C0FAFF11001B6EAC6AAB6A1BB01E
:10009800AC881BA202D0AC8CAB8C1BB4AC8E1BA65C
:1000A80002D0AB8801D0AB8A1BB8AC849E981BBA2F
:1000B800AB861BAC02D09D8A01D09D9A9E9A1BAE3E
:1000C80002D09D8801D09D9816C0AFFF17C018F0C8
:1000D80018C019F01A6A1950B06EAC8AAB8E949C8D
:1000E800948EACB8ACBE01D0948C1200000E046E95
:1000F8001F0E036EB5EC00F08C90000E066E0FD04C
:10010800010E83A2000EFF0A056E05468C500518E5
:10011800FD0B05188C6EC80EECEC00F0062A040ED8
:100128000664EED78C92040C93680F0EC16E9590FE
:1001380095926C0E326E29EC01F01F0E1C6E325037
:100148001BEC01F0F28E010E83A0000EFF0A1E6E5A
:100158008C501E18FE0B1E188C6EC80EE0EC00F0BA
:10016800F2D70D0E22EC01F00BD003C0D9FF04C06A
:10017800DAFFDF5002EC01F0ACA2FED7034A042AF2
:1001880003C0D9FF04C0DAFFDF50D8B41200EDD79E
:10019800336AF00EF66E010EF76E000EF86E00EE82
:1001A8001FF010EE13F00900F5CFEEFFE550E15017
:1001B800FAE1000198EF00F0176E186A04D0050EF6
:1001C8000BEC01F0182A1850175CD8A01200F7D7CA
:1001D800026E036A04D0050E13EC01F0032A0350E3
:1001E800025CD8A01200F7D70A504F525442206937
:1001F8006E746572727570742E2E2100016EACAC2F
:1002080003D0AC9033B2AC8001C0ADFF1200166EC3
:10021800FA0E00F0E82EFDD7162EFAD71200016E5E
:10022800FA0E00F0E82EFDD7012EFAD712001D6E47
:100238001CC016F0176A1D5048EF00F0026E0250FD
:1002480002EC01F0ACB21200FDD7F290F180F28618
:04025800F28C120012
:020000040020DA
:08000000FFFFFFFFFFFFFFFF00
:020000040030CA
:0E000000040C1F1EFF8081FF0FC00FE00F4099
:00000001FF
