:020000040000FA
:0600000082EF01F0120086
:020006000000F8
:0600080010EF00F01200F1
:02000E00F28876
:10001000F250020B02E0000E01D0010EF28C120031
:10002000DACFE4FFE2CFDAFFE9CFE4FFEACFE4FF83
:10003000F6CFE4FFF7CFE4FFF5CFE4FFF3CFE4FF23
:10004000F4CFE4FFFACFE4FF00EE00F0020EE80484
:1000500003E3EECFE4FFFBD700EE03F0000EE8046D
:1000600003E3EECFE4FFFBD7E652D9CFE6FFE1CFC3
:10007000D9FFE652F2A213D08C90DF6A0A0EDF5C41
:100080000DE28350020B02E08C9201D08C82010EB3
:10009000E66EEBEC00F0E552DF2AF0D7F292E55283
:1000A000E552E7CFD9FFE55200EE02F0000EE8047A
:1000B00003E3E5CFEDFFFBD700EE01F0020EE8040D
:1000C00003E3E5CFEDFFFBD7E5CFFAFFE5CFF4FF84
:1000D000E5CFF3FFE5CFF5FFE5CFF7FFE5CFF6FF7F
:1000E000E5CFEAFFE5CFE9FFE5CFDAFF1100F28EB9
:1000F00012006D96D09E0F0EC16E959295908C90C9
:100100008C9285DFF4DF8350010B02E08C9001D0EC
:100110008C80010EE66EEBEC00F0E552F4D7F36A4A
:06012000F46A00D0120099
:0A012600D9CFE6FFE1CFD9FFE65282
:10013000DF6AFE0EDB50D880DF5407E3050EE66E63
:1001400062EC01F0E552DF2AF4D700D0E552E55227
:10015000E7CFD9FF1200D9CFE6FFE1CFD9FFE652B2
:10016000DF6AFE0EDB50D880DF5407E3010EE66E37
:1001700062EC01F0E552DF2AF4D700D0E552E552F7
:10018000E7CFD9FF1200D9CFE6FFE1CFD9FF020EAA
:10019000E126DF6AFE0EDB50DF5C13E2010EDB6A54
:1001A0000A0EF36E010EDBCFF4FFF350F45C07E2AE
:1001B000640EE66EB8DFE552010EDB2AF1D7DF2AC6
:1001C000E9D7020EE15C02E2E16AE552E16EE55236
:1001D000E7CFD9FF1200D9CFE6FFE1CFD9FF020E5A
:1001E000E126DF6AFE0EDB50DF5C13E2010EDB6A04
:1001F000050EF36E010EDBCFF4FFF350F45C07E263
:10020000640EE66E90DFE552010EDB2AF1D7DF2A9D
:10021000E9D7020EE15C02E2E16AE552E16EE552E5
:06022000E7CFD9FF120038
:0A022600060EF66E000EF76E000ED5
:10023000F86E00010900F550656F0900F550666F12
:1002400003E1656701D03DD00900F550606F0900FA
:10025000F550616F0900F550626F09000900F55013
:10026000E96E0900F550EA6E090009000900F55031
:10027000636F0900F550646F09000900F6CF67F05D
:10028000F7CF68F0F8CF69F060C0F6FF61C0F7FF04
:1002900062C0F8FF0001635302E1645307E0090004
:1002A000F550EE6E6307F8E26407F9D767C0F6FF12
:1002B00068C0F7FF69C0F8FF00016507000E665BC4
:0402C000BFD7120092
:0C02C400FF0EE350026E480E01D04C0EFD
:1002D000E76EE72EFED7E76AE72EFED7022EF7D7A6
:0402E0000000120008
:0C02E400000EF36E00EE00F0080E01D8D2
:1002F0001200EA6002D0EE6AFCD7F350E960120007
:04030000EE6AFCD7CE
:0C03040013EE00F023EE00F0F86A019CFC
:1003100013EC01F090EC01F079EC00F0FBD7120047
:020320001200C9
:020000040030CA
:010001000CF2
:0100020019E4
:010003001EDE
:010005008179
:010006008079
:010008000FE8
:00000001FF
