:020000040000FA
:06000000D3EF02F0120034
:020006001200E6
:06000800EDEF00F0120014
:02000E000100EF
:0C001000C2050000600000002E0000008F
:04001C00D9CFE6FF53
:10002000E1CFD9FFFD0EDBCFE6FFE66AFE0EDBCFA8
:10003000E6FF38EC02F0E552E552E552E552E7CF33
:10004000D9FF1200D9CFE6FFE1CFD9FFFE0EDBCFFB
:10005000E6FF9CEC02F0E552ACA2FED7E552E7CFFA
:10006000D9FF1200D9CFE6FFE1CFD9FF0D0EE66E22
:10007000E9DFE552FD0EDBCFE9FFFE0EDBCFEAFF45
:10008000EF5013E0FD0EDBCFE9FFFE0EDBCFEAFF02
:10009000EF50E66E9CEC02F0E552ACA2FED7FD0EEE
:1000A000DB2AFE0E01E3DB2AE5D7E552E7CFD9FFD5
:1000B0001200D9CFE6FFE1CFD9FFE6529EAAFED7C4
:1000C0007DEC02F0DF6E0A0EE66EBCDFE5520D0E2F
:1000D000E66EB8DFE552DFCFE6FFB4DFE552DF5072
:1000E00000D0E552E552E7CFD9FF12009EAAFED715
:1000F0007DEC02F000D01200D9CFE6FFE1CFD9FFAE
:10010000020EE1260D0EE66E9DDFE5520A0EE66E4A
:1001100099DFE552DF6AFC0EDB50DF5C1FE29EAA2E
:10012000FED77DEC02F0E76E010EE7CFDBFFFD0EA0
:10013000DBCFE9FFFE0EDBCFEAFF010EDBCFEFFFE7
:10014000DBCFE6FF9CEC02F0E552ACA2FED7FD0E41
:10015000DB2AFE0E01E3DB2ADF2ADDD7020EE15C9B
:1001600002E2E16AE552E16EE552E7CFD9FF120003
:0A0170009E9A9F9A9D8AF28C12005D
:06017A00D9CFE6FFE1CF42
:10018000D9FFE65276EC00F00001986F710EE66E32
:10019000000EE66E32EC00F0E552E55298C0E6FF44
:1001A00022EC00F0E5528A90DF6A030EDF5C0DE27C
:1001B0008150010B02E08A9001D08A80C80EE66E61
:1001C00069EC01F0E552DF2AF0D78A90E552E5525A
:1001D000E7CFD9FF1200F28E1200D8CFE4FFE0CFB4
:1001E000E4FFE46EDACFE4FFE2CFDAFFE9CFE4FF29
:1001F000EACFE4FFF6CFE4FFF7CFE4FFF5CFE4FF6B
:10020000F3CFE4FFF4CFE4FFFACFE4FF00EE00F019
:10021000020EE80403E3EECFE4FFFBD700EE02F0AA
:10022000020EE80403E3EECFE4FFFBD7E6529EBAEA
:10023000A4DF9E9AE55200EE03F0020EE80403E309
:10024000E5CFEDFFFBD700EE01F0020EE80403E37B
:10025000E5CFEDFFFBD7E5CFFAFFE5CFF4FFE5CF24
:10026000F3FFE5CFF5FFE5CFF7FFE5CFF6FFE5CFED
:10027000EAFFE5CFE9FFE5CFDAFFE550E5CFE0FFA4
:10028000E5CFD8FF100000016C0E996F9590939008
:100290001F0EE66E99C0E6FF0EEC00F0E552E55247
:1002A000B8EC00F098DF8C90600EE66E000EE66E03
:1002B00032EC00F0E552E5528350010B02E08C90E5
:1002C00001D08C80C80EE66E69EC01F0E552ECD7E7
:0202D00012001A
:0E02D200D9CFE6FFE1CFD9FFE652DF6AFE0E7C
:1002E000DB50D880DF5407E3050EE66EB3EC02F076
:1002F000E552DF2AF4D700D0E552E552E7CFD9FF27
:100300001200D9CFE6FFE1CFD9FFE652DF6AFE0E39
:10031000DB50D880DF5407E3010EE66EB3EC02F049
:10032000E552DF2AF4D700D0E552E552E7CFD9FFF6
:100330001200D9CFE6FFE1CFD9FF020EE126DF6A36
:10034000FE0EDB50DF5C13E2010EDB6A0A0EF36E79
:10035000010EDBCFF4FFF350F45C07E2640EE66EAF
:10036000B8DFE552010EDB2AF1D7DF2AE9D7020E0A
:10037000E15C02E2E16AE552E16EE552E7CFD9FFC6
:100380001200D9CFE6FFE1CFD9FF020EE126DF6AE6
:10039000FE0EDB50DF5C13E2010EDB6A050EF36E2E
:1003A000010EDBCFF4FFF350F45C07E2640EE66E5F
:1003B00090DFE552010EDB2AF1D7DF2AE9D7020EE2
:1003C000E15C02E2E16AE552E16EE552E7CFD9FF76
:0203D000120019
:0E03D2000E0EF66E000EF76E000EF86E0001B5
:1003E0000900F550936F0900F550946F03E193678E
:1003F00001D03DD00900F5508E6F0900F5508F6F88
:100400000900F550906F09000900F550E96E0900E8
:10041000F550EA6E090009000900F550916F0900D6
:10042000F550926F09000900F6CF95F0F7CF96F0DE
:10043000F8CF97F08EC0F6FF8FC0F7FF90C0F8FF9F
:100440000001915302E1925307E00900F550EE6E6E
:100450009107F8E29207F9D795C0F6FF96C0F7FF2B
:1004600097C0F8FF00019307000E945BBFD71200FE
:10047000D9CFE6FFDACFE6FFE1CFD9FFE2CFDAFF4F
:10048000AC6AAB6AFD0EDBB0AC88DBA202D0AC8CF0
:10049000AB8CDBB4AC8EDBA602D0AB8801D0AB8AD0
:1004A000DBB8AC849E98DBBAAB86DBAC02D09D8A0D
:1004B00001D09D9A9E9ADBAE02D09D8801D09D9876
:1004C000FB0EDB50AF6EFB0EFC0EDBCF03F003C068
:1004D00002F0036A0250B06EAC8AAB8E949C948E8C
:1004E000AC50100B04E0AC50800B01E1948CE55251
:0A04F000E5CFDAFFE7CFD9FF1200D5
:0604FA00D9CFE6FFDACFC6
:10050000E6FFE1CFD9FFE2CFDAFFE652F20E0001BB
:100510009A17ABAC03D09A91ABB09A81ABB49A85E1
:10052000ABB29A87AE50DF6EDF50E552E552E5CFB1
:08053000DAFFE7CFD9FF12004A
:08053800D9CFE6FFDACFE6FFA0
:10054000E1CFD9FFE2CFDAFFACAC04D0AC90000130
:100550009AB3AC80FD0EDB50AD6EE552E5CFDAFF0D
:06056000E7CFD9FF1200F5
:0A056600FF0EE350046E480E01D0B2
:100570004C0EE76EE72EFED7E76AE72EFED7042E75
:06058000F7D70000120095
:0A058600000EF36E00EE00F0080E08
:1005900001D81200EA6002D0EE6AFCD7F350E9609D
:0605A0001200EE6AFCD718
:0A05A60013EE00F023EE00F0F86AF7
:1005B000019CE9EC01F003EC00F043EC01F0FBD707
:0205C000120027
:0E05C2000D507265737320616E79204B657960
:1005D0002E2E000A55415254207265636569766576
:1005E00020696E746572727570742E2E210A0D006A
:020000040030CA
:010001000CF2
:0100020019E4
:010003001EDE
:010005008179
:010006008079
:010008000FE8
:00000001FF
