:020000040000FA
:0600000010EF03F01200F6
:020006001200E6
:0600080026EF00F01200DB
:02000E000100EF
:0C0010003C06000060000000240000001E
:04001C00F294F194D5
:10002000F28AF28C1200630EE66E000EE66EE3ECCE
:1000300000F0E552E5528A70F29460C0E6FF61C0BC
:10004000E6FFA1EC02F0E552E5521200D8CFE4FF42
:10005000E0CFE4FFE46EDACFE4FFE2CFDAFFE9CFEE
:10006000E4FFEACFE4FFF6CFE4FFF7CFE4FFF5CFFC
:10007000E4FFF3CFE4FFF4CFE4FFFACFE4FF00EEB8
:1000800000F0020EE80403E3EECFE4FFFBD700EE3E
:1000900002F0020EE80403E3EECFE4FFFBD7E652E2
:1000A000F2B4C1DFE55200EE03F0020EE80403E310
:1000B000E5CFEDFFFBD700EE01F0020EE80403E30D
:1000C000E5CFEDFFFBD7E5CFFAFFE5CFF4FFE5CFB6
:1000D000F3FFE5CFF5FFE5CFF7FFE5CFF6FFE5CF7F
:1000E000EAFFE5CFE9FFE5CFDAFFE550E5CFE0FF36
:1000F000E5CFD8FF1000F28E1200D9CFE6FFE1CF96
:10010000D9FFFE0EDBCFE6FFD3EC00F0E552E5525F
:10011000E7CFD9FF1200D9CFE6FFE1CFD9FFE652F2
:10012000DF6A00012C0E626F93908A9077DF970E42
:10013000DF6E000EE66EE66AA1EC02F0E552E552D3
:100140001F0EE66E62C0E6FFBFEC00F0E552E5521E
:10015000DFCFE6FFBDEC02F0E552CDDF60C0E6FF89
:1001600061C0E6FFA1EC02F0E552E552FFD7F36A69
:0E017000F46A00D0E552E552E7CFD9FF120045
:02017E00D9CFD7
:10018000E6FFE1CFD9FFFD0EDBCFE6FFE66AFE0E0C
:10019000DBCFE6FF3DEC02F0E552E552E552E552D9
:1001A000E7CFD9FF1200D9CFE6FFE1CFD9FFFE0E8E
:1001B000DBCFE6FFD9EC02F0E552ACA2FED7E55268
:1001C000E7CFD9FF1200D9CFE6FFE1CFD9FF0D0E5F
:1001D000E66EE9DFE552FD0EDBCFE9FFFE0EDBCF79
:1001E000EAFFEF5013E0FD0EDBCFE9FFFE0EDBCFA1
:1001F000EAFFEF50E66ED9EC02F0E552ACA2FED772
:10020000FD0EDB2AFE0E01E3DB2AE5D7E552E7CF40
:10021000D9FF1200D9CFE6FFE1CFD9FFE6529EAA5F
:10022000FED782EC02F0DF6E0A0EE66EBCDFE5520E
:100230000D0EE66EB8DFE552DFCFE6FFB4DFE55224
:10024000DF5000D0E552E552E7CFD9FF12009EAA59
:10025000FED782EC02F000D01200D9CFE6FFE1CF4A
:10026000D9FF020EE1260D0EE66E9DDFE5520A0E65
:10027000E66E99DFE552DF6AFC0EDB50DF5C1FE2C1
:100280009EAAFED782EC02F0E76E010EE7CFDBFFFD
:10029000FD0EDBCFE9FFFE0EDBCFEAFF010EDBCF69
:1002A000EFFFDBCFE6FFD9EC02F0E552ACA2FED7C0
:1002B000FD0EDB2AFE0E01E3DB2ADF2ADDD7020E6C
:1002C000E15C02E2E16AE552E16EE552E7CFD9FF77
:0C02D00012009E9A9F9A9D8AF28C1200E8
:0402DC00D9CFE6FF91
:1002E000E1CFD9FFE652DF6AFE0EDB50D880DF5443
:1002F00007E3050EE66EF0EC02F0E552DF2AF4D7D4
:1003000000D0E552E552E7CFD9FF1200D9CFE6FF82
:10031000E1CFD9FFE652DF6AFE0EDB50D880DF5412
:1003200007E3010EE66EF0EC02F0E552DF2AF4D7A7
:1003300000D0E552E552E7CFD9FF1200D9CFE6FF52
:10034000E1CFD9FF020EE126DF6AFE0EDB50DF5C53
:1003500013E2010EDB6A0A0EF36E010EDBCFF4FF2F
:10036000F350F45C07E2640EE66EB8DFE552010E6E
:10037000DB2AF1D7DF2AE9D7020EE15C02E2E16A6B
:10038000E552E16EE552E7CFD9FF1200D9CFE6FF83
:10039000E1CFD9FF020EE126DF6AFE0EDB50DF5C03
:1003A00013E2010EDB6A050EF36E010EDBCFF4FFE4
:1003B000F350F45C07E2640EE66E90DFE552010E46
:1003C000DB2AF1D7DF2AE9D7020EE15C02E2E16A1B
:0C03D000E552E16EE552E7CFD9FF1200C4
:0403DC000E0EF66E9D
:1003E000000EF76E000EF86E00010900F550896FDF
:1003F0000900F5508A6F03E1896701D03DD00900FB
:10040000F550846F0900F550856F0900F550866F2F
:1004100009000900F550E96E0900F550EA6E09007F
:1004200009000900F550876F0900F550886F090031
:100430000900F6CF8BF0F7CF8CF0F8CF8DF084C0A9
:10044000F6FF85C0F7FF86C0F8FF0001875302E181
:10045000885307E00900F550EE6E8707F8E2880739
:10046000F9D78BC0F6FF8CC0F7FF8DC0F8FF0001F5
:0A0470008907000E8A5BBFD7120057
:06047A00D9CFE6FFDACF46
:10048000E6FFE1CFD9FFE2CFDAFFAC6AAB6AFD0E3F
:10049000DBB0AC88DBA202D0AC8CAB8CDBB4AC8E16
:1004A000DBA602D0AB8801D0AB8ADBB8AC849E98C7
:1004B000DBBAAB86DBAC02D09D8A01D09D9A9E9AB6
:1004C000DBAE02D09D8801D09D98FB0EDB50AF6E55
:1004D000FB0EFC0EDBCF03F003C002F0036A0250F8
:1004E000B06EAC8AAB8E949C948EAC50100B04E032
:1004F000AC50800B01E1948CE552E5CFDAFFE7CFF9
:04050000D9FF12000D
:0C050400D9CFE6FFDACFE6FFE1CFD9FF48
:10051000E2CFDAFFE652F20E00018E17ABAC03D049
:100520008E91ABB08E81ABB48E85ABB28E87AE5060
:10053000DF6EDF50E552E552E5CFDAFFE7CFD9FFB6
:020540001200A7
:0E054200D9CFE6FFDACFE6FFE1CFD9FFE2CF57
:10055000DAFFE652E652FC0EDBCFDEFFDBCFDDFF3B
:10056000010EDB50D76EDF50D66EE552E552E552F4
:0A057000E5CFDAFFE7CFD9FF120054
:06057A00D9CFE6FFDACF45
:10058000E6FFE1CFD9FFE2CFDAFFFD0EDB507F0BB4
:10059000D56ED76AD66AF294FD0EDBAE02D0F28A2F
:1005A00001D0F29AD58EE552E5CFDAFFE7CFD9FF39
:0205B000120037
:0E05B200D9CFE6FFDACFE6FFE1CFD9FFE2CFE7
:1005C000DAFFACAC04D0AC9000018EB3AC80FD0E71
:1005D000DB50AD6EE552E5CFDAFFE7CFD9FF120071
:1005E000FF0EE350046E480E01D04C0EE76EE72E6E
:1005F000FED7E76AE72EFED7042EF7D700001200D9
:10060000000EF36E00EE00F0080E01D81200EA6052
:1006100002D0EE6AFCD7F350E9601200EE6AFCD714
:1006200013EE00F023EE00F0F86A019CEEEC01F00E
:0C06300003EC00F08BEC00F0FBD7120094
:04063C00B4B30054FF
:100640004D523020496E7465727275707420696EF7
:1006500020657665727920315365632E2E210A005C
:020000040030CA
:010001000CF2
:0100020019E4
:010003001EDE
:010005008179
:010006008079
:010008000FE8
:00000001FF
